:020000040800F2
:1000000000800120C9010008190200081902000837
:100010001902000819020008190200080000000077
:1000200000000000000000000000000019020008AD
:10003000190200080000000019020008110400085D
:100040001902000819020008190200081902000824
:100050001902000819020008190200081902000814
:100060001902000819020008190200081902000804
:1000700019020008190200081902000819020008F4
:1000800019020008190200081902000819020008E4
:1000900019020008190200081902000819020008D4
:1000A00019020008190200081902000819020008C4
:1000B00019020008190200081902000819020008B4
:1000C00019020008190200081902000819020008A4
:1000D0001902000819020008190200081902000894
:1000E0001902000819020008190200081902000884
:1000F0001902000819020008190200081902000874
:100100001902000819020008190200081902000863
:100110001902000819020008190200081902000853
:100120001902000819020008190200081902000843
:100130001902000819020008190200081902000833
:100140001902000819020008190200081902000823
:100150001902000819020008190200081902000813
:100160001902000819020008190200081902000803
:100170001902000819020008190200080000000016
:08018000190200081902000831
:1001880010B5054C237833B9044B13B10448AFF3C9
:1001980000800123237010BD08000020000000002B
:1001A8005411000808B5034B1BB103490348AFF3CA
:1001B800008008BD000000000C0000205411000859
:1001C800DFF834D0002103E00C4B5B584350043176
:1001D8000B480C4B42189A42F6D30B4A02E0002314
:1001E80042F8043B094B9A42F9D300F013F900F0A6
:1001F80089FF00F0AFF8FEE700800120D011000869
:10020800000000200800002008000020280000202E
:10021800FEE7000010B58AB0284BDA6C42F0040201
:10022800DA64DA6C02F004020192019ADA6C42F0A4
:100238008002DA64DA6C02F080020292029ADA6CC6
:1002480042F00102DA64DA6C02F001020392039AC6
:10025800DA6C42F00202DA64DB6C03F00203049306
:10026800049B002220214FF0904000F093FA4FF4B5
:1002780000530593124B06930024079405A91148CF
:1002880000F09EF90C230593022306930794032399
:1002980008930723099305A94FF0904000F090F9BF
:1002A80020230593012306930794089405A94FF08A
:1002B800904000F085F90AB010BD00BF0010024060
:1002C8000000211000080048FEE7000000B597B0C4
:1002D800022305934FF48073089310230993002396
:1002E8000F9305A800F078FB20BB0F230093012390
:1002F80001930021029103910491684600F026FEC3
:10030800E0B94FF4007000F057FAD8B900F0F4FEE5
:100318000E4BA3FB0030800900F026F9042000F002
:1003280039F9002211464FF0FF3000F0E9F817B014
:100338005DF804FB86210648FFF7C6FF94210448B0
:10034800FFF7C2FF9B210248FFF7BEFFD34D6210A3
:100358007011000808B500F091F8FFF7B7FFFFF734
:1003680059FF4FF4FA7000F0A9F820214FF090409F
:1003780000F015FAF5E7000000B583B0214B1A6EBE
:1003880042F001021A661A6E02F001020092009A07
:100398009A6D42F080529A659B6D03F080530193E9
:1003A800019B032000F09AF8002211466FF00B0021
:1003B80000F0A6F8002211466FF00A0000F0A0F83D
:1003C800002211466FF0090000F09AF80022114649
:1003D8006FF0040000F094F8002211466FF003005B
:1003E80000F08EF8002211466FF0010000F088F846
:1003F800002211464FF0FF3000F082F803B05DF89C
:1004080004FB00BF0010024008B500F049F800F0F6
:10041800D2F808BD0C4B1A6842F001021A6000219C
:1004280099601A6822F0A85222F410221A604FF438
:100438008052DA601A6822F480221A609961034BAC
:100448004FF000629A6070470010024000ED00E033
:1004580010B50446074B1868074BA3FB003080090A
:1004680000F082F8002221464FF0FF3000F048F8F3
:10047800002010BD00000020D34D621008B5074AC7
:10048800136843F480731360032000F027F80020FA
:10049800FFF7DEFFFFF770FF002008BD00200240D5
:1004A800024A136801331360704700BF240000201C
:1004B800014B1868704700BF2400002038B5044677
:1004C800FFF7F6FF0546B4F1FF3F00D00134FFF710
:1004D800EFFF401BA042FAD338BD0000074AD3689B
:1004E80023F4E0631B041B0C000200F4E0601843D3
:1004F80040F0BF6040F40030D060704700ED00E08D
:1005080030B4174BDB68C3F30223C3F10704042C90
:1005180028BF04241D1D062D18D9033B4FF0FF35B5
:1005280005FA04F421EA0401994005FA03F322EAE2
:100538000303194300280BDB0901C9B200F160402D
:1005480000F5614080F8001330BC70470023E5E7F0
:1005580000F00F000901C9B2024B1954F4E700BFBB
:1005680000ED00E014ED00E00138B0F1807F0AD220
:10057800064B5860064AF02182F823100020986044
:1005880007221A6070470120704700BF10E000E0A2
:1005980000ED00E0042805D0054A136823F00403A1
:1005A80013607047024A136843F0040313607047EE
:1005B80010E000E0704708B5FFF7FCFF08BD000039
:1005C800F0B482B0002341E0D0F82CC02CEA040C2F
:1005D800C6F3C0049C4044EA0C04C46286E00624C6
:1005E80000E00024B4403C430235664E46F82540FE
:1005F800654C2568D44304EA05064F6817F4803F24
:1006080001D042EA0506604D2E606D6804EA0506D1
:100618004F6817F4003F01D042EA05065A4D6E6054
:10062800AD6804EA05064F6817F4801F01D042EA56
:100638000506554DAE60ED682C404E6816F4001F57
:1006480001D042EA0504504AD46001330A6832FAFC
:1006580003F400F0938001249C402240F5D04D68BB
:10066800022D01D0122D10D1DE08083650F826C010
:1006780003F00705AF000F25BD402CEA050C0D69F6
:10068800BD4045EA0C0540F8265006685F00032582
:10069800BD40ED4305EA060C4E6806F00306BE4071
:1006A80046EA0C0606604E6806F1FF3CBCF1010FF5
:1006B80003D9112E01D0122E11D1866805EA060C35
:1006C800CE68BE4046EA0C068660466826EA040CF8
:1006D8004E68C6F300169E4046EA0C0646604E6811
:1006E80006F0030CBCF1030F3FF46EAFC46825405D
:1006F8008C68BC402C43C4604C6814F0805FA4D064
:10070800224C256E45F001052566246E04F001048F
:100718000194019C9D08AE1C1A4C54F8267003F0F5
:100728000304A6000F24B44027EA0407B0F1904F51
:100738003FF457AF164CA04216D004F58064A0428F
:1007480014D004F58064A04212D004F58064A0425D
:1007580010D004F58064A0420ED004F58064A04255
:100768003FF43DAF07243DE701243BE7022439E786
:10077800032437E7042435E7052433E702B0F0BC47
:10078800704700BF00000140000401400010024013
:10079800000400480AB98162704781617047436963
:1007A8005940416170470000024B186800F4C0606E
:1007B800704700BF00700040B0F5007F0FD0204B9D
:1007C8001B6803F4C063B3F5806F37D01C4A136805
:1007D80023F4C06343F48063136000207047184B10
:1007E8001B6803F4C063B3F5007F25D0144A13686F
:1007F80023F4C06343F400731360124B1B6802F1C7
:10080800467202F55B3202F28322A2FB03239A0CA2
:10081800322303FB02F300E0013B23B1084A52698B
:1008280012F4806FF8D1064B5B6913F4806F01D125
:100838000020704703207047002070470020704751
:10084800007000400000002030B583B00546204B02
:100858009B6D13F0805F0BD0FFF7A6FFB0F5007F0C
:1008680017D0802D1FD82DD0702D2DD000211BE042
:10087800174CA36D43F08053A365A36D03F0805319
:100888000193019BFFF790FFA36D23F08053A365AD
:10089800E4E7802D03D9A02D03D9022104E000212B
:1008A80002E0012100E003210A4A136823F007034C
:1008B8000B431360136803F007038B4206D0012033
:1008C80003B030BD0221EFE70121EDE70020F7E793
:1008D80000100240002002403B4B9B6813F00C0FB5
:1008E8001AD0394B9B6803F00C030C2B0ED0364BF7
:1008F8009B6803F00C03042B2FD0334B9B6803F049
:100908000C03082B2CD00020014618E02E4BDB6886
:1009180003F00303012BEAD12B4B1B6813F0080FDC
:1009280014D1294BD3F89430C3F30323274A52F840
:100938002310254B9B6813F00C0F0CD00020224A83
:10094800936803F00C030C2B0DD070471E4B1B68EB
:10095800C3F30313EAE70846F1E71D480021EEE771
:100968001C480021EBE71346D26802F00302DB685B
:10097800C3F302130133022A0AD0032A1AD0B1FBA7
:10098800F3F3114AD068C0F3062000FB03F008E037
:100998000F48B0FBF3F30C4AD068C0F3062000FB05
:1009A80003F0094BDB68C3F3416301335B00B0FB21
:1009B800F3F0CAE70748B0FBF3F3034AD068C0F383
:1009C800062000FB03F0ECE700100240901100083D
:1009D8000024F40000127A0070B582B0044603685F
:1009E80013F0100F3FD0974B9B6813F00C0F40F09B
:1009F8009280944B1B6813F0020F03D08369002B7D
:100A080000F09182206A8F4B1B6813F0080F62D0A8
:100A18008C4B1B6803F0F003984263D9FFF714FF6F
:100A2800002840F08782874B1A6842F008021A6053
:100A38001A6822F0F002216A0A431A605A6822F4FE
:100A48007F42E16942EA01225A60FFF745FF7D4B88
:100A58009B68C3F303137C4AD35CD8407B4B186074
:100A68000020FFF7F5FC236813F0010F00F0A180C8
:100A7800744B9B6803F00C03082B00F09180714BBA
:100A88009B6803F00C030C2B00F083806368B3F5BC
:100A9800803F00F0B580B3F5A02F00F0B780694B18
:100AA8001A6822F480321A601A6822F480221A60C6
:100AB8006368002B00F0B780FFF7FAFC0546614B2E
:100AC8001B6813F4003F74D1FFF7F2FC401B642845
:100AD800F5D9032035E25B4BD3F894301B0903F0BA
:100AE800F00399E7574B1A6842F008021A601A682F
:100AF80022F0F002216A0A431A605A6822F47F42FF
:100B0800E16942EA01225A60206AFFF79DFE002847
:100B18009BD0012015E2836933B34A4A136843F036
:100B280001031360FFF7C4FC0546464B1B6813F02E
:100B3800020F06D1FFF7BCFC401B0228F5D90320A1
:100B4800FFE1404B1A6842F008021A601A6822F066
:100B5800F002216A0A431A605A6822F47F42E16966
:100B680042EA01225A607EE7364A136823F00103FD
:100B78001360FFF79DFC0546324B1B6813F0020F0C
:100B88003FF471AFFFF794FC401B0228F4D903200F
:100B9800D7E12C4BDB6803F00303032B7FF476AF1C
:100BA800284B1B6813F4003F03D06368002B00F048
:100BB800C381236813F0020F61D0224B9B6803F0B6
:100BC8000C03042B4AD01F4B9B6803F00C030C2B1F
:100BD8003ED0E368002B78D01A4A136843F4807338
:100BE8001360FFF765FC0546164B1B6813F4806F0E
:100BF80062D1FFF75DFC401B0228F5D90320A0E174
:100C0800104A136843F48033136051E703F18043BB
:100C1800A3F53C331A6842F480221A601A6842F439
:100C280080321A6044E7FFF743FC0546054B1B6812
:100C380013F4003FBDD0FFF73BFC401B6428F5D9F7
:100C480003207EE10010024080110008000000200F
:100C5800B64BDB6803F00303022BBAD1B34B1B6816
:100C680013F4806F03D0E368002B00F06781AF4A6C
:100C7800536823F0F853216943EA016353602368FA
:100C880013F0080F4CD063699BB3A84AD2F894308C
:100C980043F00103C2F89430FFF70AFC0546A34B62
:100CA800D3F8943013F0020F3AD1FFF701FC401B40
:100CB8000228F4D9032044E19C4A536823F0F853EE
:100CC800216943EA01635360D9E7984A136823F41A
:100CD80080731360FFF7ECFB0546944B1B6813F415
:100CE800806FCCD0FFF7E4FB401B0228F5D9032026
:100CF80027E18E4AD2F8943023F00103C2F89430E9
:100D0800FFF7D6FB0546894BD3F8943013F0020F52
:100D180006D0FFF7CDFB401B0228F4D9032010E1D1
:100D2800236813F0040F7BD0804B9B6D13F0805F1A
:100D380036D17E4B9A6D42F080529A659B6D03F0D6
:100D480080530193019B0125794B1B6813F4807F25
:100D580028D0A368012B39D0052B3FD0734BD3F88B
:100D6800902022F00102C3F89020D3F8902022F0BE
:100D78000402C3F89020A368002B3DD0FFF798FB2E
:100D880006466A4BD3F8903013F0020F46D1FFF7AE
:100D98008FFB801B41F288339842F2D90320D0E0C0
:100DA8000025D1E7624A136843F480731360FFF7A4
:100DB8007FFB06465E4B1B6813F4807FC9D1FFF7A3
:100DC80077FB801B0228F5D90320BAE0574AD2F8EE
:100DD800903043F00103C2F89030CCE7534BD3F87E
:100DE800902042F00402C3F89020D3F8902042F0FB
:100DF8000102C3F89020BEE7FFF75AFB06464B4BAB
:100E0800D3F8903013F0020F08D0FFF751FB801B86
:100E180041F288339842F2D9032092E0002D35D16F
:100E2800A36A002B00F08C80404A926802F00C0202
:100E38000C2A00F08880022B2ED03C4B1A6822F036
:100E480080721A601B6813F0006F09D1374B1B685A
:100E580013F0005F04D1354AD36823F00303D3604D
:100E6800324AD36823F0887323F48033D360FFF7C2
:100E78001FFB04462D4B1B6813F0007F51D0FFF772
:100E880017FB001B0228F5D903205AE0274A936D67
:100E980023F080539365C3E7244A136823F08073D3
:100EA8001360FFF705FB0546204B1B6813F0007F16
:100EB80006D0FFF7FDFA401B0228F5D9032040E0D1
:100EC800236B5A1E636B1B0243EA0213A26B1209BF
:100ED80043EA4243E26A1343E26B5208013A43EAA7
:100EE8004253226C5208013A43EA42630F4AD360E4
:100EF800136843F080731360D36843F08073D36042
:100F0800FFF7D6FA0446094B1B6813F0007F06D199
:100F1800FFF7CEFA001B0228F5D9032011E00020C4
:100F28000FE000200DE001200BE000BF00100240A0
:100F380000700040012004E0012002E0012000E0F0
:100F4800002002B070BD0120FBE700BF664B1B68A4
:100F580003F007038B420CD2634A136823F007039C
:100F68000B431360136803F007038B4201D0012081
:100F7800704770B50D460446036813F0010F6CD036
:100F88004368032B0AD0022B2DD0002B32D1574AAD
:100F9800126812F0020F07D10120A2E0534A12682A
:100FA80012F0007F00F09E8050498A6822F0030208
:100FB80013438B60FFF77CFA06466368032B20D047
:100FC800022B2DD0002B3AD0484B9B6803F00C0322
:100FD800042B42D0FFF76CFA801B41F28833984209
:100FE800F2D903207DE0414A126812F4003FDBD1B8
:100FF800012076E03D4A126812F4806FD4D10120B6
:101008006FE03A4B9B6803F00C030C2B25D0FFF7DD
:101018004FFA801B41F288339842F2D9032060E0EE
:10102800324B9B6803F00C03082B16D0FFF740FAED
:10103800801B41F288339842F2D9032051E02B4BB0
:101048009B6813F00C0F08D0FFF732FA801B41F2AF
:1010580088339842F3D9032043E0236813F0020F42
:1010680006D0224A936823F0F003A1680B439360EB
:101078001D4B1B6803F00703AB420CD91A4A1368CF
:1010880023F007032B431360136803F00703AB42F5
:1010980001D0012025E0236813F0040F06D0134A7D
:1010A800936823F4E063E1680B439360236813F0CB
:1010B800080F07D00D4A936823F46053216943EA67
:1010C800C1039360FFF708FC084B9B68C3F3031345
:1010D800074AD35CD840074B18600020FFF7B8F9DF
:1010E800002070BD0120FCE70020024000100240F3
:1010F8008011000800000020014B1868704700BFED
:101108000000002070B50D4E0D4CA41BA410002546
:10111800A54209D10B4E0C4C00F018F8A41BA410E2
:101128000025A54205D170BD56F8253098470135F0
:10113800EEE756F8253098470135F2E7C011000868
:10114800C0110008C0110008C4110008F8B500BF9C
:10115800F8BC08BC9E467047F8B500BFF8BC08BC90
:081168009E46704700000000E4
:101170002E2E2F5372632F6D61696E2E6300000057
:101180000000000000000000010203040607080937
:10119000A0860100400D0300801A060000350C00F7
:1011A00040420F0080841E0000093D0000127A00BA
:1011B0000024F40000366E010048E801006CDC02F7
:0811C000AD0100080000000071
:0811C80089010008000000008D
:0811D00000093D0000000000D1
:04000005080001C925
:00000001FF
