:020000040800F2
:1000000000800120C9010008190200081902000837
:100010001902000819020008190200080000000077
:1000200000000000000000000000000019020008AD
:10003000190200080000000019020008E10300088E
:100040001902000819020008190200081902000824
:100050001902000819020008190200081902000814
:100060001902000819020008190200081902000804
:1000700019020008190200081902000819020008F4
:1000800019020008190200081902000819020008E4
:1000900019020008190200081902000819020008D4
:1000A00019020008190200081902000819020008C4
:1000B00019020008190200081902000819020008B4
:1000C00019020008190200081902000819020008A4
:1000D0001902000819020008190200081902000894
:1000E0001902000819020008190200081902000884
:1000F0001902000819020008190200081902000874
:100100001902000819020008190200081902000863
:100110001902000819020008190200081902000853
:100120001902000819020008190200081902000843
:100130001902000819020008190200081902000833
:100140001902000819020008190200081902000823
:100150001902000819020008190200081902000813
:100160001902000819020008190200081902000803
:100170001902000819020008190200080000000016
:08018000190200081902000831
:1001880010B5054C237833B9044B13B10448AFF3C9
:1001980000800123237010BD08000020000000002B
:1001A800440F000808B5034B1BB103490348AFF3DC
:1001B800008008BD000000000C000020440F00086B
:1001C800DFF834D0002103E00C4B5B584350043176
:1001D8000B480C4B42189A42F6D30B4A02E0002314
:1001E80042F8043B094B9A42F9D300F0FDF800F0BD
:1001F80081FE00F045F8FEE700800120B00F0008FE
:10020800000000200800002008000020280000202E
:10021800FEE710B596B0022305934FF480701023C3
:10022800CDE90803002305A80F9300F077FB0146EA
:1002380000B1FEE70F220123CDE9020004906846D1
:10024800CDE9002300F09CFD00B1FEE74FF40070FB
:1002580000F086FA044600B1FEE700F045FE4FF4D0
:100268007A73B0FBF3F000F065F9042000F078F938
:10027800224621464FF0FF3000F028F916B010BD95
:1002880000B58BB000F0E2F8FFF7C3FF2C4BDA6C37
:1002980042F00402DA64DA6C02F004020192019A74
:1002A800DA6C42F08002DA64DA6C02F080020292C0
:1002B800029ADA6C42F00102DA64DA6C02F00102A6
:1002C8000392039ADA6C42F00202DA64DB6C03F000
:1002D80002030493002220214FF09040049B00F079
:1002E8002DFA184B18484FF40052002405A9CDE9FF
:1002F8000523079400F046F90C210223CDE90513E4
:1003080003200723CDE9080305A94FF0904007947F
:1003180000F038F94FF0200C012305A94FF0904068
:10032800CDE905C3CDE9074400F02CF94FF4FA7084
:1003380000F0ACF820214FF0904000F004FAF5E707
:10034800001002400000211000080048214B07B5AA
:100358001A6E42F001021A661A6E02F00102009249
:10036800009A9A6D42F080529A659B6D03F0805313
:1003780001930320019B00F097F8002211466FF0CB
:100388000B0000F0A3F8002211466FF00A0000F0FD
:100398009DF8002211466FF0090000F097F800223E
:1003A80011466FF0040000F091F8002211466FF03A
:1003B800030000F08BF8002211466FF0010000F0F6
:1003C80085F8002211464FF0FF3003B05DF804EBCA
:1003D80000F07CB80010024008B500F049F8BDE80C
:1003E800084000F0CAB800000C4B1A68002142F01F
:1003F80001021A6099601A6822F0A85222F41022A9
:100408001A604FF48052DA601A6822F480221A6067
:100418009961034B4FF000629A60704700100240E8
:1004280000ED00E010B5084B044618684FF47A73E5
:10043800B0FBF3F000F07EF8002221464FF0FF30C9
:1004480000F044F8002010BD00000020074A08B55D
:10045800136843F480731360032000F025F800202C
:10046800FFF7E0FFFFF772FF002008BD0020024001
:10047800024A136801331360704700BF240000204C
:10048800014B1868704700BF2400002038B50446A7
:10049800FFF7F6FF631C054618BF0134FFF7F0FFAE
:1004A800401BA042FAD338BD074AD36823F4E0635F
:1004B8001B041B0C43F0BF63000243F4003300F439
:1004C800E0600343D360704700ED00E0174B70B560
:1004D800DC68C4F30224C4F10705042D04F1040305
:1004E80028BF04254FF0FF36062B06FA05F38CBF0C
:1004F800033C002421EA0303A34006FA04F422EA99
:100508000404002843EA0403A8BF00F160404FEA4E
:100518000313BCBF00F00F00054ADBB2AABF00F509
:100528006140135480F8003370BD00BF00ED00E057
:1005380014ED00E00138B0F1807F0AD2064B074A7B
:100548005860F02182F823100020072298601A6072
:1005580070470120704700BF10E000E000ED00E0A8
:10056800044B1A6804280CBF42F0040222F004026B
:100578001A60704710E000E0704708B5FFF7FCFF0D
:1005880008BD00002DE9F04F85B00B68DFF8A881A1
:10059800674C01930023019ADA4002D105B0BDE807
:1005A800F08F0126019A9E4016EA020C00F0B180F5
:1005B8004A6822F01007022F16D14FEAD30900EB40
:1005C800890903F0070AD9F820504FEA8A0A4FF040
:1005D8000F0E0EFA0AFE25EA0E0E0D6905FA0AF547
:1005E80045EA0E05C9F820504FEA430E0325D0F816
:1005F80000B005FA0EF5ED4302F0030A05EA0B0B0D
:100608000AFA0EF9013F49EA0B09012FC0F80090D8
:1006180011D8876805EA0709CF6807FA0EF747EA8D
:1006280009078760476827EA0609C2F300179F4051
:1006380047EA09074760BAF1030F07D1C76A27EAF3
:100648000606C2F3C0079F403E43C662C6683540EF
:100658008E6806FA0EF63543C560D50059D5D8F828
:10066800605045F00105C8F86050D8F8605023F094
:10067800030606F1804605F0010506F58036039568
:1006880003F0030E039DB5684FEA8E0E0F2707FA95
:100698000EF7B0F1904F25EA07073CD0254DA84248
:1006A8003BD005F58065A84239D005F58065A8429C
:1006B80037D005F58065A84235D005F58065A84294
:1006C80033D005F58065A84214BF0725062505FA2D
:1006D8000EF53D43B56025686FEA0C06D70354BF95
:1006E80035404CEA050525606568970354BF3540D9
:1006F8004CEA05056560A568D70254BF35404CEA49
:100708000505A560E568920254BF35404CEA050529
:10071800E56001333FE70025D9E70125D7E7022542
:10072800D5E70325D3E70425D1E70525CFE700BFA3
:100738000004014000040048001002400AB1816131
:1007480070478162704743695940416170470000B2
:10075800024B186800F4C060704700BF007000408A
:10076800164B1A68B0F5007F02F4C0621AD1B2F5D0
:10077800007F13D01A68124922F4C06242F4007252
:100788001A60104A1268B2FBF1F132224A4312B1E0
:100798005969490504D45B695B050DD4002070478D
:1007A800013AF4E7B2F5806F1FBF1A6822F4C062FD
:1007B80042F480621A60F1E703207047007000403D
:1007C80040420F000000002037B51E4DAB6DDA0027
:1007D800044618D5FFF7BCFFB0F5007F23D1802C65
:1007E80029D9A02C8CBF02200120174A136823F0B6
:1007F800070303431360136803F00703181A18BFAD
:10080800012003B030BDAB6D43F08053AB65AB6DD9
:1008180003F080530193019BFFF79AFFAB6D23F020
:100828008053AB65D8E7802C07D808D0A4F17003B3
:1008380058425841D9E70020D7E70320D5E70220DE
:10084800D3E700BF00100240002002402F4B9A68F7
:1008580012F00C0F10B509D09A6802F00C020C2A9D
:100868002DD1DA6802F00302012A28D11A68284932
:10087800120755BFD3F894201A68C2F30322C2F3B3
:10088800031251F82220996811F00C0F0CBF104682
:100898000020996801F00C010C2930D1DC68D86877
:1008A800C0F30210411C04F00300022819D00328E9
:1008B80026D0B2FBF1F2D868C0F3062017E09A6898
:1008C80002F00C02042A07D09A6802F00C02082AE7
:1008D80004D110480022DCE70F48FBE7002002465D
:1008E800D7E7DA680C48C2F30622B0FBF1F0DB6800
:1008F800C3F34163013350435B00B0FBF3F010BD19
:10090800DA680448C2F30622EFE700BF001002408D
:10091800700F000800127A000024F40003682DE923
:10092800F3410546D8063BD5A94CA36813F00C0F34
:1009380060D12368990705D5AB691BB9012002B0BE
:10094800BDE8F0812368286A1A0756BFD4F89430A6
:1009580023681B0903F0F003984236D9FFF734FFE8
:100968000028EBD1236843F00803236023682A6A30
:1009780023F0F003134323606368EA6923F47F4399
:1009880043EA02236360FFF761FFA368914AC3F358
:100998000313D35CD840904B18600020FFF742FD4A
:1009A8002B68DE075BD42B689C0700F1A3802B68BB
:1009B800190700F1E1802B685A0700F10F81AA6A34
:1009C800002A40F076810020B9E7236843F0080345
:1009D8002360236823F0F003034323606368EA6914
:1009E80023F47F4343EA02236360FFF7EDFE002808
:1009F800C9D0A3E7AB6913B3236843F001032360AD
:100A0800FFF73EFD064623689B0711D5236843F090
:100A18000803236023682A6A23F0F0031343236042
:100A28006368EA6923F47F4343EA02236360B7E714
:100A3800FFF726FD801B0228E5D903207FE72368FE
:100A480023F001032360FFF71BFD064623689F0779
:100A5800A6D5FFF715FD801B0228F7D9EDE75C4CFA
:100A6800A36803F00C03082B09D0A36803F00C0358
:100A78000C2B0BD1E36803F00303032B06D1236887
:100A8800980390D56B68002B8DD157E76B68B3F549
:100A9800803F10D1236843F480332360FFF7F0FCD4
:100AA8000646236899033FF57EAFFFF7E9FC801BF4
:100AB8006428F6D9C1E7B3F5A02F04D1236843F41D
:100AC80080232360E6E7226822F4803222602268CD
:100AD80022F480222260002BE0D1FFF7D1FC0646E9
:100AE80023689A037FF55FAFFFF7CAFC801B642871
:100AF800F6D9A2E7364CA36803F00C03042B09D0FF
:100B0800A36803F00C030C2B13D1E36803F0030371
:100B1800022B0ED123685B0503D5EB68002B3FF44D
:100B28000DAF63682A6923F0F85343EA02636360F0
:100B38003DE7EB687BB1236843F480732360FFF7DC
:100B48009FFC064623685F05EBD4FFF799FC801BE2
:100B58000228F7D971E7236823F480732360FFF72D
:100B68008FFC0646236858057FF521AFFFF788FC00
:100B7800801B0228F6D960E76B69154C9BB1D4F845
:100B8800943043F00103C4F89430FFF779FC06462B
:100B9800D4F894309B073FF50EAFFFF771FC801B2C
:100BA8000228F5D949E7D4F8943023F00103C4F8B2
:100BB8009430FFF765FC0646D4F894309F077FF51C
:100BC800FAAEFFF75DFC801B0228F5D935E700BFB8
:100BD80000100240600F000800000020664CA36D62
:100BE800DE0027D4A36D43F08053A365A36D03F003
:100BF80080530193019B0127604E3368D8051BD5AC
:100C0800AB68012B29D1D4F8903043F00103C4F824
:100C18009030FFF735FC41F288380646D4F890301A
:100C28009A0740D5002F3FF4CAAEA36D23F0805336
:100C3800A365C4E60027DFE7336843F480733360B5
:100C4800FFF71EFC80463368D905D9D4FFF718FC96
:100C5800A0EB08000228F6D9EFE6052B06D1D4F858
:100C6800903043F00403C4F89030CCE7D4F89020D7
:100C780022F00102C4F89020D4F8902022F0040257
:100C8800C4F89020002BC4D1FFF7FAFB41F2883852
:100C98000646D4F890309B07C4D5FFF7F1FB801BBC
:100CA8004045F6D9C9E6FFF7EBFB801B4045B5D9AF
:100CB800C3E6314CA36803F00C030C2B3FF43EAEA3
:100CC8002368022A23F08073236037D1FFF7D8FB0B
:100CD800064623689F012BD46A6BEB6A43EA02231A
:100CE8002A6B013A43EA0213AA6B120943EA424308
:100CF800EA6B5208013A43EA42532A6C5208013A15
:100D080043EA4263E360236843F080732360E36847
:100D180043F08073E360FFF7B3FB0546236898014F
:100D28003FF551AEFFF7ACFB401B0228F6D984E62D
:100D3800FFF7A6FB801B0228CBD97EE623681901A2
:100D480006D423689A005EBFE36823F00303E360D8
:100D5800E36823F0887323F48033E360FFF790FBA4
:100D6800054623689B017FF52EAEFFF789FB401BE4
:100D78000228F6D961E600BF00100240007000406A
:100D8800554A136803F007038B422DE9F0410546E5
:100D98000E462AD32B68D90734D429688A0700F16C
:100DA80081804D4A136803F00703B34200F2828042
:100DB80011F0040F494C40F088800B0706D5A36852
:100DC8002A6923F4605343EAC203A360FFF73EFD98
:100DD800A368434AC3F30313D35CD840414B18605C
:100DE8000020FFF71FFB00200AE0136823F0070329
:100DF8000B431360136803F007038B42CAD001202A
:100E0800BDE8F0816A68354C032A23681BD113F0CA
:100E1800007FF4D0A36823F003031343A360FFF714
:100E28002FFB6B68032B074641F2883817D1A3685C
:100E380003F00C030C2BB0D0FFF722FBC01B40457E
:100E4800F5D90320DCE7022A02D113F4003FE0E7DA
:100E580012B913F0020FDCE713F4806FD9E7022B05
:100E68000AD1A36803F00C03082B96D0FFF708FB00
:100E7800C01B4045F5D9E4E773B9A36813F00C0F1C
:100E88008BD0FFF7FDFAC01B4045F6D9D9E7FFF72D
:100E9800F7FAC01B4045D4D8A36803F00C03042B11
:100EA800F5D17AE70D4AA868936823F0F003034365
:100EB800936076E7136823F00703334313601368DE
:100EC80003F00703B3429AD172E7A368EA6823F4F0
:100ED800E0631343A36070E7002002400010024063
:100EE800600F000800000020014B1868704700BF21
:100EF8000000002070B50D4E0D4CA41BA410002559
:100F0800A54209D10B4E0C4C00F018F8A41BA410F4
:100F18000025A54205D170BD56F825309847013502
:100F2800EEE756F8253098470135F2E7A00F00089C
:100F3800A00F0008A00F0008A40F0008F8B500BF14
:100F4800F8BC08BC9E467047F8B500BFF8BC08BCA2
:080F58009E46704700000000F6
:100F60000000000000000000010203040607080959
:100F7000A0860100400D0300801A060000350C0019
:100F800040420F0080841E0000093D0000127A00DC
:100F90000024F40000366E010048E801006CDC0219
:080FA000AD0100080000000093
:080FA8008901000800000000AF
:080FB00000093D0000000000F3
:04000005080001C925
:00000001FF
